:020000001BC023
:1000020034C0FDCFFCCFFBCFFACFF9CFF8CF2DC054
:10001200F6CFF5CFF4CFF3CFF2CFF1CFF0CFEFCFD2
:10002200EECFEDCF1027E80364000A0001000010B4
:10003200000110000100F894EE27ECBBF1E0FBBFD9
:10004200EBBFE5BF8DE0A2E0BB27ED938A95E9F710
:1000520080E094E0A0E6ED930197E9F7EFE5EDBFCC
:10006200E4E0EEBFC0E6D1E007C0EA93E0E0EDBD18
:10007200E0E7ECBDE99118952897E0E0E883E98391
:10008200EFE4EA83E0E0EB83E5E5EC83E0E0ED8397
:10009200E4E4EE83E0E0EF83FF2401E010E021E0FE
:1000A20030E04FEF50E0E2E0E7BBE0E0E8BBE4BB6A
:1000B200E5BBE1BBE2BBE3BFE2BFE1E8EFBDEDE0E0
:1000C200EEBDE0E0EDBDE0E7ECBDE0E0E7BDE6BDA2
:1000D200EBBDEFEFEABDE0E0E9BDE8BDE2BDE5BDA5
:1000E200E4BDE3BDE4E0E9BFEBB7E064EBBFE3E00E
:1000F200E5BFE0E4EABFE0E0EBB9E8E1EAB9E6E84F
:10010200E0BDE0E0E0BDE7E6E9B9E0E8E8B9E0E05B
:10011200E0BFE6B9EDB9E6BF7894ECB5E03011F492
:10012200E0E7ECBD5BBD4ABDFE013896FA93EA9367
:10013200A1E0B0E0A3D0FE013896FA93EA93DE0183
:10014200189684D0F0E0E7FDFFEF8F01002E012A20
:1001520081F4E881F9813197E883F983A881B98133
:10016200129724F4E1E0F0E0E883F983A4E1B0E03F
:10017200B2D0FE013896FA93EA93DE01169666D063
:10018200F0E0E7FDFFEF9F01022E032A81F4E881F0
:10019200F9813196E883F983A881B981189724F00F
:1001A200E8E0F0E0E883F983A4E1B0E094D0EA81EA
:1001B200A885EA1741F4E1E0FE26E881F98195D0AD
:1001C200F0E0E883F983F0FE3AC0E881F981E1309A
:1001D200A0E0FA0719F441EE50E030C0E230A0E0AE
:1001E200FA0719F447ED50E029C0E330A0E0FA071E
:1001F20019F44DEC50E022C0E430A0E0FA0719F403
:1002020043EC50E01BC0E530A0E0FA0719F449EBDB
:1002120050E014C0E630A0E0FA0719F44FEA50E0CB
:100222000DC0E730A0E0FA0719F445EA50E006C035
:10023200E830A0E0FA0711F443E750E005C04FEFC1
:1002420050E0E0E0E883E98368CFFFCFBA93AA9356
:10025200E991F991A991B9916D917191671721F481
:100262006623D1F7EE270895671BE1F3E1E008F476
:10027200E25008955F9BFECFECB10895BA93AA9322
:1002820039D00E811F8128853985002E012AD9F0A7
:10029200F1DF5E2F583051F4AE81BF810A171B0780
:1002A20020F4215030400F5F1F4FF2CF5A3059F0E7
:1002B2003F932F932F5F3F4FE52FAF91BF91EC9369
:1002C20001501040E2CFD901E0E0EC93E885F985D6
:1002D20018D02A960895109639F080EA9FE0019787
:1002E200F1F7A8951197C9F70895EF2BE1E009F00E
:1002F200E0E008955A934A933A932A931A930A9301
:1003020008955D814C813B812A811981088108957C
:00000001FF
